:100000000C942A001895000018950000189500001F
:10001000189500001895000018950000189500002C
:10002000189500001895000018950000189500001C
:10003000189500001895000018950000189500000C
:1000400018950000189500001895000018950000FC
:10005000189500008FE58DBFC8E3E0E24E2E84E0E6
:100060008EBFD4E0F4E05F2EA89584B7082E877F7A
:1000700084BF88E1992781BD91BDEEEFF3E0A0E652
:10008000B0E088278D933197E9F766248FEF87BB1F
:100090008FEF8ABBC798C498DA98DF9ADE9ADD980A
:1000A000DC9A84EF91E00E94CE00DF98DE98DD9824
:1000B000DC98DB9ADB98C69A80E080936000009120
:1000C0006000023018F011F00C94740084EF91E09D
:1000D0000E94CE00C59AC598A0E6B0E08C918F5FD3
:1000E0008C9310F40C945F00DB9ADB9884EF91E022
:1000F0000E94CE00C69880E080936000009160006E
:10010000033018F011F00C94930084EF91E00E94FA
:10011000CE00C59AC598A0E6B0E08C918F5F8C9315
:1001200010F40C947E0084EF91E00E94CE00DB9AE4
:10013000DB98C69A84EF91E00E94CE00C59AC598DC
:1001400084EF91E00E94CE00DB9ADB98C69880E0B5
:100150008093600000916000033018F011F00C945F
:10016000BF0084EF91E00E94CE00C59AC598A0E63A
:10017000B0E08C918F5F8C9310F40C94AA00DB9A02
:10018000DB980C944D00F894FFCF3197F1F7089568
:10019000689462F80895E89462F80895EF93FF93E5
:1001A000EE27E82BE92B31F0E0EDF7E03197F1F79E
:0A01B0000197D1F7FF91EF91089538
:00000001FF
