:1000000012C0189518951895189518951895189563
:100010001895189518951895189518951895189578
:100020001895189518958FE58DBFC8E3E0E24E2E20
:1000300084E08EBFD4E0F4E05F2EA89584B7082E4C
:10004000877F84BF88E1992781BD91BDEEEFF3E002
:10005000A0E6B0E088278D933197E9F766248FEF0B
:1000600087BB8FEF84BB80E08093600000916000CD
:100070000B3010F009F038C0A0E6B0E08C9185BBE1
:1000800000916000003009F005C071E078BB88EE97
:1000900093E036D000916000033009F005C072E0B3
:1000A00078BB88EE93E02CD000916000063009F018
:1000B00005C074E078BB88EE93E022D00091600028
:1000C000093009F005C078E078BB88EE93E018D0DD
:1000D00070E078BB84EF91E013D0A0E6B0E08C91A3
:1000E0008F5F8C9308F4C2CFBECFF894FFCF3197C7
:1000F000F1F70895689462F80895E89462F8089515
:10010000EF93FF93EE27E82BE92B31F0E8EEF3E0D5
:0E0110003197F1F70197D1F7FF91EF91089524
:00000001FF
