:1000000012C0189518951895189518951895189563
:100010001895189518951895189518951895189578
:100020001895189518958FE58DBFC8E3E0E24E2E20
:1000300084E08EBFD4E0F4E05F2EA89584B7082E4C
:10004000877F84BF88E1992781BD91BDEEEFF3E002
:10005000A0E6B0E088278D933197E9F78CE089B965
:1000600080E080BD88E18AB966248FEF84BB80E0A0
:1000700087BB80E08093600000916000033010F047
:1000800009F041C0A0E6B0E08C9185BBE6E7F1E065
:1000900045D0A3E3B0E08C9181FBA8E0B4E067D049
:1000A0008D9388278C9332D0A3E3B0E08C9180FBB2
:1000B000A8E0B4E05CD08D9388278C9327D0E0E84B
:1000C000F1E02CD0A6E3B0E08C9180FBA8E0B4E096
:1000D0004ED08D9388278C9319D0A6E3B0E08C91F5
:1000E00081FBA8E0B4E043D08D9388278C930ED099
:1000F0001BD084EF91E028D0A0E6B0E08C918F5F18
:100100008C9308F4B9CFB5CFF894FFCFA8E0B4E052
:100110008D91882311F00BD0FBCF089524D0802D32
:1001200011F005D0FBCF08958DE001D08AE05D9BF2
:10013000FECF8CB908953197F1F70895689462F86D
:100140000895E89462F80895EF93FF93EE27E82B63
:10015000E92B31F0E8EEF3E03197F1F70197D1F7B1
:10016000FF91EF910895C89531960020089580E39E
:100170000EF4839508954F75747075743A200000DD
:0A01800020496E7075743A200000EB
:00000001FF
