:100000000C942A001895000018950000189500001F
:10001000189500001895000018950000189500002C
:10002000189500001895000018950000189500001C
:10003000189500001895000018950000189500000C
:1000400018950000189500001895000018950000FC
:10005000189500008FE58DBFC8E3E0E24E2E84E0E6
:100060008EBFD4E0F4E05F2EA89584B7082E877F7A
:1000700084BF88E1992781BD91BDEEEFF3E0A0E652
:10008000B0E088278D933197E9F783E389B980E061
:1000900080BD88E18AB96624D09AD19AD29AD39A3F
:1000A000D498D598D6988FEF84BBDC9ADD9ADE9AE7
:1000B00080E08093600000916000033018F011F040
:1000C0000C94B60080916000ABE3B0E00E947D012B
:1000D0000E9473018C9189238C9384E0809361004A
:1000E00000916100063018F011F00C94A30080918B
:1000F0006100A9E3B0E00E947D010E9473010C90B1
:100100000822689409F4E89416F40C949B008091FA
:100110006100D2018C9381E00E946D0180916000AA
:10012000D2018C9381E00E946D010E94B800249658
:1001300082E00E946901A1E6B0E08C918F5F8C9310
:1001400010F40C94700080916000ABE3B0E00E946A
:100150007D010E9473019C91982B9C93A0E6B0E0D6
:100160008C918F5F8C9310F40C945B000C9458006E
:10017000A881B9810C91003011F00C94C20081E08B
:1001800080936200A881B9810C91013011F00C9428
:10019000CC0084E080936200A881B9810C91023088
:1001A00011F00C94D60087E0809362000091620009
:1001B000AA81BB814C91040FA2E6B0E00C93A2E6A9
:1001C000B0E08C9184508C93A881B9810C9103305C
:1001D00011F00C94EE0080E080936200E2E6F0E023
:1001E000A8E0B4E00E94A1010E9449010E945101CF
:1001F00000916200003011F00C9402017FE375BBA6
:100200000C944801013011F00C940A0176E075BBA2
:100210000C944801023011F00C9412017BE575BB7F
:100220000C944801033011F00C941A017FE475BB63
:100230000C944801043011F00C94220176E675BB51
:100240000C944801053011F00C942A017DE675BB31
:100250000C944801063011F00C9432017CE775BB18
:100260000C944801073011F00C943A0177E075BB0B
:100270000C944801083011F00C9442017FE775BBE3
:100280000C944801093011F00C94480177E675BBD5
:100290000895A8E0B4E08D91882311F005D0FBCF3C
:1002A00008958DE001D08AE05D9BFECF8CB9089562
:1002B0003197F1F70895689462F80895E89462F828
:1002C000089501911191219130810895481A590A98
:1002D0000895481A8827580A089599275A924A92E9
:1002E000480E591E089591E0882321F08894991FA3
:1002F0008A95E9F7892F90950895883018F011961E
:100300008850FBCF0895000F111F221F331F08953F
:1003100000951095209530950F5F1F4F2F4F3F4F41
:100320000895019110810FC00E9461010EC00E94CA
:10033000610110C00191108117FF05C03FEF2FEF41
:1003400004C0008111272227332737FF03C0E0DFD5
:100350008DE28D93CF92DF92EF92AA24BB24CC241E
:10036000DD24EE2440E2EAE0FF2755E093E38081BC
:10037000890F87FD9F7083FD907F891B81935A951C
:10038000A9F7C1DFAA1CBB1CCC1CDD1CEE1C4A95C6
:1003900051F7E894EFE0FF2782910CD0EB30E0F7C3
:1003A0001EF068948A2D0AD088278D93EF90DF90F5
:1003B000CF900895982F829501D0892F8F70805DFE
:0E03C00026F0803309F4089568948D93089513
:00000001FF
