:1000000012C0189518951895189518951895189563
:100010001895189518951895189518951895189578
:100020001895189518958FE58DBFC8E3E0E24E2E20
:1000300084E08EBFD4E0F4E05F2EA89584B7082E4C
:10004000877F84BF88E1992781BD91BDEEEFF3E002
:10005000A0E6B0E088278D933197E9F783E389B96B
:1000600080E080BD88E18AB966248FEF87BBE4E336
:10007000F2E07DD0E3E062D0A8E0B4E0ACD0A0E64E
:10008000B0E00C93A0E6B0E00D9111274FEF50E0E7
:1000900081D0A1E6B0E00D931C93A1E6B0E00D91F4
:1000A0001C914AE050E010D0A1E6B0E04D935C9383
:1000B000A1E6B0E08C9188BBDACFF894FFCF08D0EE
:1000C00069D000FC10D0089503D01ED001F8F9CFFC
:1000D0000024E89457FF02C009D0689400F80BD0C0
:1000E00010F80124089502D009D008955095409544
:1000F0004F5F5F4F0895E89417FF0895009510959E
:100100000F5F1F4F68940895352F242FE894452BD7
:1001100011F468940895512F402F0027112780E192
:10012000440F551F001F111F021B130B416018F4D1
:10013000020F131F4E7F8A9599F70895A8E0B4E047
:1001400012D08D3039F0EE23D9F38D93EA9563FE0A
:1001500014D0F6CF63FC04C08DE00FD08AE00DD040
:1001600088278C9308955F9BFECF8CB108951CD097
:10017000802D11F002D0FBCF08955D9BFECF8CB98E
:1001800008953197F1F70895689462F80895E89416
:1001900062F808950F92B801469F8001479F100DA5
:1001A000569F100D0F900895C89531960020089520
:1001B000040F151F261F371F0895000F111F221F40
:1001C000331F089500951095209530950F5F1F4FB0
:1001D0002F4F3F4F089500271127222733271DD087
:1001E0008A3328F4803318F005D015D0F9CF0EF4F7
:1001F000E9CF089580538F93402F512F622F732F93
:10020000DCDFDBDFD5DFD9DF8F919927080F191FDE
:10021000291F391F08958D910895E894FCDF8032DD
:10022000E9F38B32D9F38930C9F38D3211F4689434
:0A023000F2CF089555203D20000094
:00000001FF
