:1000000012C0189518951895189518951895189563
:100010001895189518951895189518951895189578
:100020001895189518958FE58DBFC8E3E0E24E2E20
:1000300084E08EBFD4E0F4E05F2EA89584B7082E4C
:10004000877F84BF88E1992781BD91BDEEEFF3E002
:10005000A0E6B0E088278D933197E9F766248FEF0B
:1000600087BB86E990E0A2E6B0E08D939C9380E0A8
:1000700090E0A0E6B0E08D939C93A0E6B0E00D91F7
:100080001C91073050E0150714F009F01BC0809157
:100090006000A8E3B0E05DD052D09C91982B9C9377
:1000A000A2E6B0E08D919C913BD080916000A8E3E6
:1000B000B0E04FD044D08C9189238C93A0E6B0E07F
:1000C0001FD0DBCFA2E6B0E00D911C91023350E0CF
:1000D000150714F009F007C086E990E0A2E6B0E049
:1000E0008D939C930AC0A2E6B0E00D911C9102533F
:1000F0001040A2E6B0E00D931C93B9CFF894FFCF67
:10010000ED91FC91EF5FFF4FFC93EE9308953197D3
:10011000F1F70895689462F80895E89462F80895F4
:10012000EF93FF93EE27E82BE92B31F0E8EEF3E0B5
:100130003197F1F70197D1F7FF91EF91089591E091
:10014000882321F08894991F8A95E9F7892F909543
:0E0150000895883018F011968850FBCF08955E
:00000001FF
