:1000000012C0189518951895189518951895189563
:100010001895189518951895189518951895189578
:100020001895189518958FE58DBFC8E3E0E24E2E20
:1000300084E08EBFD4E0F4E05F2EA89584B7082E4C
:10004000877F84BF88E1992781BD91BDEEEFF3E002
:10005000A0E6B0E088278D933197E9F78CE089B965
:1000600080E080BD88E18AB966248FEF84BBA89ABE
:10007000A99884EF91E030D0A99AA89884EF91E0F4
:100080002BD0A89AA99A84EF91E026D0AC9A84EF5D
:1000900091E022D0AB9AAB9884EF91E01DD0AC9860
:1000A00084EF91E019D0AA9A84EF91E015D0AB9A31
:1000B000AB9884EF91E010D0AA9884EF91E00CD037
:1000C000D6CFF894FFCF3197F1F70895689462F88E
:1000D0000895E89462F80895EF93FF93EE27E82BD4
:1000E000E92B31F0E8EEF3E03197F1F70197D1F722
:0600F000FF91EF9108955D
:00000001FF
