:100000000C942A001895000018950000189500001F
:10001000189500001895000018950000189500002C
:10002000189500001895000018950000189500001C
:10003000189500001895000018950000189500000C
:1000400018950000189500001895000018950000FC
:10005000189500008FE58DBFC8E3E0E24E2E84E0E6
:100060008EBFD4E0F4E05F2EA89584B7082E877F7A
:1000700084BF88E1992781BD91BDEEEFF3E0A0E652
:10008000B0E088278D933197E9F76624D098D2980D
:100090008FEF84BB8FEF81BBB99A0E941B018CE06C
:1000A0000E946901D89ADA9A81E08093600076E034
:1000B00075BBE4E2F4E00E940701C8990C94790052
:1000C000A0E6B0E08C918F5F8C93009160000A30C5
:1000D00011F00C946E0080E080936000A0E6B0E028
:1000E000BA93AA930E94990022968AEF90E00E9408
:1000F0009601CA990C94950080916000815080937C
:100100006000009160000F3F11F00C948A0089E0BC
:1001100080936000A0E6B0E0BA93AA930E94990091
:1001200022968AEF90E00E9496010C945D00F8946C
:10013000FFCFA881B9818C9182BB8FE711E00E942B
:100140001801E0E3F4E00E940701A8E0B4E0E881D0
:10015000F9810E94CC010E94FF00A881B9810C9115
:10016000003011F00C94B8007FE375BB0C94FE00D6
:10017000013011F00C94C00076E075BB0C94FE00C9
:10018000023011F00C94C8007BE575BB0C94FE00A6
:10019000033011F00C94D0007FE475BB0C94FE008A
:1001A000043011F00C94D80076E675BB0C94FE0078
:1001B000053011F00C94E0007DE675BB0C94FE0058
:1001C000063011F00C94E8007CE775BB0C94FE003F
:1001D000073011F00C94F00077E075BB0C94FE0032
:1001E000083011F00C94F8007FE775BB0C94FE000A
:1001F000093011F00C94FE0077E675BB0895A8E075
:10020000B4E08D91882311F05ED0FBCF08950E9459
:10021000AA01802D11F057D0FACF08958FE7213031
:1002200039F08FEB223021F08FE8233009F08FEC8A
:10023000810F0C9469018AEF90E00E949601BE9AAA
:10024000BD9ABC9ABB9ABA9AB89AC09885E090E0D9
:100250000E949601C298C698C598C49AC39AC29A39
:10026000EF93FF93E4ECF0E00E948A01FF91EF919D
:10027000C29859D0C29AEF93FF93E4ECF0E00E9449
:100280008A01FF91EF91C2984ED0C29AEF93FF93EB
:10029000E4ECF0E00E948A01FF91EF91C29843D014
:1002A000C398C29AEF93FF93E4ECF0E00E948A01B6
:1002B000FF91EF91C29837D088E20BD08EE009D041
:1002C00086E007D00895C09A829505D004D02BD03F
:1002D0000895C098F9CF859510F4C39A01C0C398CA
:1002E000859510F4C49A01C0C498859510F4C59AF8
:1002F00001C0C598859510F4C69A01C0C698C29AE7
:10030000EF93FF93E4ECF0E00E948A01FF91EF91FC
:10031000C29808953197F1F70895689462F80895A6
:10032000E89462F8089581E090E000C0EF93FF93B5
:10033000EE27E82BE92B31F0E0EDF7E03197F1F70C
:100340000197D1F7FF91EF910895019111912191BA
:1003500030810895C895319600200895000F111F2F
:10036000221F331F089500951095209530950F5F3B
:100370001F4F2F4F3F4F0895019110810FC00E94D2
:10038000A5010EC00E94A50110C00191108117FFA8
:1003900005C03FEF2FEF04C000811127222733272C
:1003A00037FF03C0E0DF8DE28D93CF92DF92EF92B3
:1003B000AA24BB24CC24DD24EE2440E2EAE0FF277B
:1003C00055E093E38081890F87FD9F7083FD907FC7
:1003D000891B81935A95A9F7C1DFAA1CBB1CCC1CB1
:1003E000DD1CEE1C4A9551F7E894EFE0FF2782915F
:1003F0000CD0EB30E0F71EF068948A2D0AD08827E5
:100400008D93EF90DF90CF900895982F829501D033
:10041000892F8F70805D26F0803309F408956894E9
:100420008D9308954E756D626572203D20312000D8
:0A0430004E756D626572203D2000DC
:00000001FF
