:100000000C942A001895000018950000189500001F
:10001000189500001895000018950000189500002C
:10002000189500001895000018950000189500001C
:10003000189500001895000018950000189500000C
:1000400018950000189500001895000018950000FC
:10005000189500008FE58DBFC8E3E0E24E2E84E0E6
:100060008EBFD4E0F4E05F2EA89584B7082E877F7A
:1000700084BF88E1992781BD91BDEEEFF3E0A0E652
:10008000B0E088278D933197E9F78CE089B980E05B
:1000900080BD88E18AB966248FEF84BB80E08093BD
:1000A0006000009160000F3F18F011F00C946800A0
:1000B000A0E6B0E08C9185BB82E390E00E947500E1
:1000C000A0E6B0E08C918F5F8C9310F40C945100FB
:1000D0000C944E00F894FFCF3197F1F7089568948F
:1000E00062F80895E89462F80895EF93FF93EE277D
:1000F000E82BE92B31F0E8EEF3E03197F1F70197C7
:08010000D1F7FF91EF91089582
:00000001FF
