:100000000C942A001895000018950000189500001F
:10001000189500001895000018950000189500002C
:10002000189500001895000018950000189500001C
:10003000189500001895000018950000189500000C
:1000400018950000189500001895000018950000FC
:10005000189500008FE58DBFC8E3E0E24E2E84E0E6
:100060008EBFD4E0F4E05F2EA89584B7082E877F7A
:1000700084BF88E1992781BD91BDEEEFF3E0A0E652
:10008000B0E088278D933197E9F78CE089B980E05B
:1000900080BD88E18AB966248A9A8FEF84BB8FEF8E
:1000A0008ABB80E087BBE2E1F3E00E94C200E3E0AC
:1000B0000E94A100A8E0B4E00E945A01A0E6B0E0CE
:1000C0000C93ECE1F3E00E94C200E3E00E94A10087
:1000D000A8E0B4E00E945A01A1E6B0E00C93A0E6CB
:1000E000B0E08C9185BBA1E6B0E08C918BBB84EF36
:1000F00091E00E94D900929AE6E2F3E00E94C200E9
:10010000E6E3F0E0A8E0B4E00E9414010E94BA0027
:100110000E94C90084EF91E00E94D9009298EEE21B
:10012000F3E00E94C200E6E3F0E0A8E0B4E00E9441
:1001300014010E94BA000E94C9000C945300F89464
:10014000FFCFA8E0B4E012D08D3039F0EE23D9F320
:100150008D93EA9563FE20D0F6CF63FC04C08DE05A
:100160001BD08AE019D088278C9308955F9BFECF1F
:100170008CB10895A8E0B4E08D91882311F00CD0E3
:10018000FBCF08950E94ED00802D11F005D0FACF2D
:1001900008958DE001D08AE05D9BFECF8CB9089573
:1001A0003197F1F70895689462F80895E89462F839
:1001B0000895EF93FF93EE27E82BE92B31F0E8EE5B
:1001C000F3E03197F1F70197D1F7FF91EF9108959F
:1001D00001911191219130810895C89531960020A7
:1001E0000895040F151F261F371F0895000F111FB4
:1001F000221F331F089500951095209530950F5FAD
:100200001F4F2F4F3F4F0895019110810FC00E9443
:10021000E8000EC00E94E80010C00191108117FF95
:1002200005C03FEF2FEF04C000811127222733279D
:1002300037FF03C0E0DF8DE28D93CF92DF92EF9224
:10024000AA24BB24CC24DD24EE2440E2EAE0FF27EC
:1002500055E093E38081890F87FD9F7083FD907F38
:10026000891B81935A95A9F7C1DFAA1CBB1CCC1C22
:10027000DD1CEE1C4A9551F7E894EFE0FF278291D0
:100280000CD0EB30E0F71EF068948A2D0AD0882756
:100290008D93EF90DF90CF900895982F829501D0A5
:1002A000892F8F70805D26F0803309F4089568945B
:1002B0008D93089500271127222733271DD08A33D5
:1002C00028F4803318F005D015D0F9CF0EF493CF71
:1002D000089580538F93402F512F622F732F86DF05
:1002E00085DF7FDF83DF8F919927080F191F291F73
:1002F000391F08958D910895E894FCDF8032E9F369
:100300008B32D9F38930C9F38D3211F46894F2CF6E
:1003100008954E756D626572204120004E756D62C4
:1003200065722042200041202D2042200000412003
:060330002B20422000001A
:00000001FF
