:1000000012C0189518951895189518951895189563
:100010001895189518951895189518951895189578
:100020001895189518958FE58DBFC8E3E0E24E2E20
:1000300084E08EBFD4E0F4E05F2EA89584B7082E4C
:10004000877F84BF88E1992781BD91BDEEEFF3E002
:10005000A0E6B0E088278D933197E9F789E189B967
:1000600080E080BD88E18AB96624E2ECF4E03DD10D
:10007000E6E01AD1A8E0B4E0C8D1A0E6B0E00D9364
:100080001C93E8ECF4E031D1E6E00ED1A8E0B4E056
:10009000BCD1A2E6B0E00D931C93EEECF4E025D1C8
:1000A000E6E002D1A8E0B4E0B0D1A4E6B0E00D9360
:1000B0001C93A2E6B0E00D911C9142E050E0DCD030
:1000C000A8E6B0E00D931C9304E010E0A0E6B0E0D9
:1000D0004D915C9125D1A6E6B0E00D931C93A6E668
:1000E000B0E00D911C91A4E6B0E04D915C9118D167
:1000F000A6E6B0E00D931C93A8E6B0E00D911C912C
:10010000A6E6B0E04D915C91041B150BA6E6B0E0AD
:100110000D931C93A6E6B0E00D911C91003050E0C9
:1001200015070CF401C005C0E4EDF4E0DED0E3D027
:1001300061C0A6E6B0E098D1A6E6B0E04D935C932E
:10014000A2E6B0E00D911C914FEF5FEFE9D0A6E67B
:10015000B0E04D915C91040F151FAAE6B0E00D933D
:100160001C9302E010E0A0E6B0E04D915C91D8D085
:10017000A8E6B0E00D931C93AAE6B0E00D911C91A7
:10018000A8E6B0E04D915C913DD0AAE6B0E04D9379
:100190005C93A2E6B0E00D911C914FEF5FEFC0D0F1
:1001A000A6E6B0E04D915C91041B150BACE6B0E007
:1001B0000D931C93ACE6B0E00D911C91A8E6B0E065
:1001C0004D915C911FD0ACE6B0E04D935C93EEEDA9
:1001D000F4E08BD0EAE6F0E0A8E0B4E0C9D07DD04E
:1001E000E4EEF4E082D0ECE6F0E0A8E0B4E0C0D0C9
:1001F00074D081D03ACFF894FFCF08D091D000FCD2
:1002000010D0089503D01ED001F8F9CF0024E8944F
:1002100057FF02C009D0689400F80BD010F80124F1
:10022000089502D009D00895509540954F5F5F4FD3
:100230000895E89417FF0895009510950F5F1F4FDC
:1002400068940895352F242FE894452B11F4689471
:100250000895512F402F0027112780E1440F551F8B
:10026000001F111F021B130B416018F4020F131F14
:100270004E7F8A9599F7089513D079F0002E112EAC
:10028000415050400DD009F408954F935F93402D95
:10029000512D46D05F914F91F3CF01E01127089582
:1002A0008827842B852B0895A8E0B4E012D08D30E8
:1002B00039F0EE23D9F38D93EA9563FE1FD0F6CF84
:1002C00063FC04C08DE01AD08AE018D088278C9394
:1002D00008955F9BFECF8CB10895A8E0B4E08D91A6
:1002E000882311F00BD0FBCF089524D0802D11F07E
:1002F00005D0FBCF08958DE001D08AE05D9BFECF55
:100300008CB908953197F1F70895689462F80895CB
:10031000E89462F808950191119121913081089536
:100320000F92B801469F8001479F100D569F100DF8
:100330000F900895C895319600200895040F151F59
:10034000261F371F0895000F111F221F331F089506
:1003500000951095209530950F5F1F4F2F4F3F4F01
:100360000895019110810DC0D6DF0DC0D4DF10C0FB
:100370000191108117FF05C03FEF2FEF04C00081EE
:1003800011272227332737FF03C0E2DF8DE28D9349
:10039000CF92DF92EF92AA24BB24CC24DD24EE245A
:1003A00040E2EAE0FF2755E093E38081890F87FD73
:1003B0009F7083FD907F891B81935A95A9F7C3DFB6
:1003C000AA1CBB1CCC1CDD1CEE1C4A9551F7E89402
:1003D000EFE0FF2782910CD0EB30E0F71EF068943D
:1003E0008A2D0AD088278D93EF90DF90CF900895C3
:1003F000982F829501D0892F8F70805D26F08033F1
:1004000009F4089568948D930895002711272227F1
:1004100033271DD08A3328F4803318F005D015D047
:10042000F9CF0EF495CF089580538F93402F512F1D
:10043000622F732F88DF87DF81DF85DF8F91992718
:10044000080F191F291F391F08958D910895E894E9
:10045000FCDF8032E9F38B32D9F38930C9F38D3276
:1004600011F46894F2CF08950D911C9111231AF4A0
:1004700025C00D911C919927222733274427552702
:1004800089E0440F551F000F111F221F331F000F5B
:10049000111F221F331F642F752F660F771F63955F
:1004A0002617370720F0261B370B4395591F8A95CF
:1004B00041F756954795491F591F089544275527D9
:1004C000089541203D20000042203D2000004320AF
:1004D0003D2000004572726F722034303400583174
:0C04E000203D2000205832203D2000006C
:00000001FF
