:100000000C942A001895000018950000189500001F
:10001000189500001895000018950000189500002C
:10002000189500001895000018950000189500001C
:10003000189500001895000018950000189500000C
:1000400018950000189500001895000018950000FC
:10005000189500008FE58DBFC8E3E0E24E2E84E0E6
:100060008EBFD4E0F4E05F2EA89584B7082E877F7A
:1000700084BF88E1992781BD91BDEEEFF3E0A0E652
:10008000B0E088278D933197E9F783E389B980E061
:1000900080BD88E18AB9662470E071B970E270B9F8
:1000A000D29A0E9476030E94EC028CE00E943A03EE
:1000B00087E0D2018C9381E00E94CD0383E0D201DE
:1000C0008C9381E00E94CD030E944F02249682E02F
:1000D0000E94C903A0E6B0E0BA93AA9380E0D201DF
:1000E0008C9381E00E94CD0385E0D2018C9381E066
:1000F0000E94CD0383E0D2018C9381E00E94CD0366
:100100000E946102289683E00E94C90380E0D20128
:100110008C9381E00E94CD0380916000D2018C938A
:1001200081E00E94CD030E944F02249682E00E944B
:10013000C903A0E6B0E0BA93AA9380E0D2018C9301
:1001400081E00E94CD0383E0D2018C9381E00E9484
:10015000CD0382E0D2018C9381E00E94CD030E9406
:100160006102289683E00E94C90381E0D2018C934A
:1001700081E00E94CD0380916000D2018C9381E0E8
:100180000E94CD030E944F02249682E00E94C90380
:10019000A0E6B0E0BA93AA9380E0D2018C9381E00C
:1001A0000E94CD0381E0D2018C9381E00E94CD03B7
:1001B00083E0D2018C9381E00E94CD030E94610212
:1001C000289683E00E94C90382E0D2018C9381E0EB
:1001D0000E94CD0380916000D2018C9381E00E9447
:1001E000CD030E944F02249682E00E94C903A0E63C
:1001F000B0E0BA93AA9380E0D2018C9381E00E9490
:10020000CD0381E0D2018C9381E00E94CD0387E091
:10021000D2018C9381E00E94CD030E946102289656
:1002200083E00E94C90383E0D2018C9381E00E94A5
:10023000CD0380916000D2018C9381E00E94CD03B8
:100240000E944F02249682E00E94C903A0E6B0E01B
:10025000BA93AA9380E0D2018C9381E00E94CD03EF
:1002600080E0D2018C9381E00E94CD0384E0D20132
:100270008C9381E00E94CD030E946102289683E066
:100280000E94C90385E0D2018C9381E00E94CD03D6
:1002900080916000D2018C9381E00E94CD030E9486
:1002A0004F02249682E00E94C903A0E6B0E0BA9310
:1002B000AA9380E0D2018C9381E00E94CD0381E07B
:1002C000D2018C9381E00E94CD0389E0D2018C930E
:1002D00081E00E94CD030E946102289683E00E9483
:1002E000C90386E0D2018C9381E00E94CD03809106
:1002F0006000D2018C9381E00E94CD030E944F02E6
:10030000249682E00E94C90312E91E7F0E948B039B
:100310000E949C031EEE0E949C030E949603E1E053
:10032000F0E00E94E602A3E6B0E0BA93AA9380E070
:10033000D2018C9381E00E94CD030E948F0224960B
:1003400081E00E94C903A2E6B0E0BA93AA9381E0DB
:10035000D2018C9381E00E94CD030E948F022496EB
:1003600081E00E94C903A1E6B0E0BA93AA9382E0BB
:10037000D2018C9381E00E94CD030E948F022496CB
:1003800081E00E94C90312E91E7F0E948B030E9434
:100390009C031AEA0E949C030E94960313E91160D1
:1003A0000E948B030E949C030E94B7030E94960345
:1003B000A4E6B0E01C938FE711E00E94E302EEEAAE
:1003C000F8E00E94D202A8E0B4E0E1E6F0E00E948A
:1003D0003B040E94CA02E6EBF8E00E94D202A8E0C9
:1003E000B4E0E2E6F0E00E943B040E94CA02E6EBC1
:1003F000F8E00E94D202A8E0B4E0E3E6F0E00E9458
:100400003B040E94CA028FEB11E00E94E302E8EB7A
:10041000F8E00E94D202E4E6F0E0A8E0B4E00E9436
:10042000F5030E94CA02EEEAF8E00E94BC02A8E0CE
:10043000B4E0E1E6F0E00E943B040E94B402E6EB87
:10044000F8E00E94BC02A8E0B4E0E2E6F0E00E941E
:100450003B040E94B402E6EBF8E00E94BC02A8E074
:10046000B4E0E3E6F0E00E943B040E94B4020E9484
:10047000C302E8EBF8E00E94BC02E4E6F0E0A8E08A
:10048000B4E00E94F5030E94B4020E94C302E0ECB3
:10049000F8E00E94BC020E94C3020C948F010E94EB
:1004A0008B0310ED0E949C03AA81BB811C910E94CA
:1004B0009C03A881B9811C910E949C030E94960311
:1004C000089581E00E94CD03AC81BD810C9140E193
:1004D000049F0C92AE81BF818C9180FBAC81BD8169
:1004E0008C9187F98C93AC81BD818C91A881B98165
:1004F0008C93A881B9810C91AA81BB814C91042B6A
:10050000A881B9810C93A881B9818C91A885B985FE
:100510008C9381E0481A80E0580A2296089581E081
:100520000E94CD030E948B0310ED0E949C03AA81C0
:10053000BB811C910E949C030E948B0311ED0E94C1
:100540009C030E94B703A881B9811C930E94960363
:10055000A881B9818C91AC81BD818C9381E0481ACE
:1005600080E0580A22960895A8E0B4E08D9188238F
:1005700011F00CD0FBCF08950E94D303802D11F011
:1005800005D0FACF08958DE001D08AE05D9BFECFC3
:100590008CB90895A8E0B4E08D91882311F064D05F
:1005A000FBCF08950E94D303802D11F05DD0FACFC8
:1005B00008958FE7213039F08FEB223021F08FE85A
:1005C000233009F08FEC810F0C943A0388EE93E00E
:1005D0007ED03197D9F708958AEF90E00E946703A3
:1005E000D79AD69AD59AD49AD39AD19AD99885E09F
:1005F00090E00E946703DB98DF98DE98DD9ADC9A32
:10060000DB9AEF93FF93E4ECF0E00E945B03FF9131
:10061000EF91DB9859D0DB9AEF93FF93E4ECF0E095
:100620000E945B03FF91EF91DB984ED0DB9AEF9332
:10063000FF93E4ECF0E00E945B03FF91EF91DB9805
:1006400043D0DC98DB9AEF93FF93E4ECF0E00E9458
:100650005B03FF91EF91DB9837D088E20BD08EE0FF
:1006600009D086E007D00895D99A829505D004D0A4
:100670002BD00895D998F9CF859510F4DC9A01C054
:10068000DC98859510F4DD9A01C0DD98859510F40D
:10069000DE9A01C0DE98859510F4DF9A01C0DF98DC
:1006A000DB9AEF93FF93E4ECF0E00E945B03FF9191
:1006B000EF91DB9808953197F1F70895689462F807
:1006C0000895E89462F8089581E090E000C0EF9307
:1006D000FF93EE27E82BE92B31F0E0EDF7E03197BF
:1006E000F1F70197D1F7FF91EF910895A198A098A4
:1006F000A99AA89A0895689446BF8F939F938827D4
:100700009927019621F046B747FFFBCFE8949F91C8
:100710008F9162F8089544EAEEDF41B1487F483096
:1007200019F0403109F0689462F8089544E946BF31
:1007300046B744FDFDCF089513B944E8DCDF8F933D
:100740009F9388279927019669F041B1487F483FD8
:10075000D1F3E894483139F0483229F0403419F0A7
:10076000403509F068949F918F9162F8089544E8AC
:1007700001C044ECC0DF13B141B1487F483FE1F311
:10078000089501911191219130810895481A590AD3
:100790000895481A8827580A089599275A924A9224
:1007A000480E591E0895C895319600200895000FEF
:1007B000111F221F331F0895009510952095309525
:1007C0000F5F1F4F2F4F3F4F0895019110810FC0B2
:1007D0000E94C1030EC00E94C10310C0019110818C
:1007E00017FF05C03FEF2FEF04C00081112722271C
:1007F000332737FF03C0E0DF8DE28D93CF92DF9286
:10080000EF92AA24BB24CC24DD24EE2440E2EAE0CB
:10081000FF2755E093E38081890F87FD9F7083FD5B
:10082000907F891B81935A95A9F7C1DFAA1CBB1C35
:10083000CC1CDD1CEE1C4A9551F7E894EFE0FF2735
:1008400082910CD0EB30E0F71EF068948A2D0AD02C
:1008500088278D93EF90DF90CF900895982F829501
:1008600001D0892F8F70805D26F0803309F40895C0
:1008700068948D93089541E003C042E001C044E0D4
:10088000E40F8827F81F8291982F829506D0892F30
:1008900004D04A95C1F70C9454048F708A3008F044
:1008A000895F805D8D93089588278D93089554699D
:1008B0006D65203D20003A0054656D70203D20009C
:1008C0002D2D2D2D2D2D2D2D2D2D2D2D2D2D2D0085
:00000001FF
