:100000000C942A001895000018950000189500001F
:10001000189500001895000018950000189500002C
:10002000189500001895000018950000189500001C
:10003000189500001895000018950000189500000C
:1000400018950000189500001895000018950000FC
:10005000189500008FE58DBFC8E3E0E24E2E84E0E6
:100060008EBFD4E0F4E05F2EA89584B7082E877F7A
:1000700084BF88E1992781BD91BDEEEFF3E0A0E652
:10008000B0E088278D933197E9F78CE089B980E05B
:1000900080BD88E18AB966248FEF84BB80E087BB8E
:1000A00080E080936000009160000F3F18F011F035
:1000B0000C94D400A0E6B0E08C9185BB84EF91E075
:1000C0000E94F700A5E6B0E086B38C93EEE0F6E080
:1000D0000E94FA02E5E6F0E0D080EE24FF2400273B
:1000E0000E942B020E94BC02EDE0F0E0A1E6B0E02D
:1000F0000E94ED01E2E1F6E00E94FA02E1E6F0E0A2
:100100000E9401020E946302EDE0F0E0A1E6B0E08F
:100110000E94ED01EEE0F6E00E94FA02E5E6F0E072
:10012000D080EE24FF2400270E942B020E94BC02F4
:10013000EDE0F0E0A6E6B0E00E94ED01E2E1F6E0DD
:100140000E94FA02E6E6F0E00E9401020E946302C9
:10015000EDE0F0E0A6E6B0E00E94ED01E6E1F6E0B9
:100160000E94E000E6E6F0E0A8E0B4E00E940102B0
:100170000E9406010E94D800EEE1F6E00E94E00035
:10018000E1E6F0E0A8E0B4E00E9401020E9406016E
:100190000E94D8000E94E700A0E6B0E08C918F5F3B
:1001A0008C9310F40C9453000C945000F894FFCFEF
:1001B000A8E0B4E08D91882311F00CD0FBCF089516
:1001C0000E94E901802D11F005D0FACF08958DE04D
:1001D00001D08AE05D9BFECF8CB908953197F1F78D
:1001E0000895689462F80895E89462F80895EF938A
:1001F000FF93EE27E82BE92B31F0E8EEF3E031979F
:10020000F1F70197D1F7FF91EF9108958DE207FD86
:100210008D938F2D881F802F881F8F57082F6894EC
:10022000F7F8802F87FF15C080958395082F80E30E
:100230008D938EE28D93802F815228F080E38D93F1
:1002400099279C93089544270A95802F09F196D009
:100250001FC0805230F09EE49D9381E48D939D9366
:10026000EFCF4427DF92EF92FF920F938FE1801B35
:1002700011F0082F83D089D09EE29D930F91FF90BB
:10028000EF90DF9044270395003209F4D7CF2BD0AD
:100290003F93ECE1F3E038E12F2D1E2D0D2DFF24CF
:1002A000EE24DD244427000F111F221FA8F42F92F3
:1002B0003F920E94E901102C0E94E901202C0E942B
:1002C000E901302C0E94E9013197410DD21CE31C59
:1002D000F01C3F902F9001C0339631963A9519F754
:1002E0003F9107D0AFCFDD0CEE1CFF1C0A95D9F76C
:1002F0000895002719E058D08F93802B11F00395B3
:1003000001C08F911A95B9F7802F882309F496CFF1
:100310008F91805D8D930A95D9F792CF0065CD1DA1
:1003200080B2E60E40597307A0ACB90350D6DC0189
:10033000286BEE0094357700CA9A3B0065CD1D000E
:10034000B2E60E0059730700ACB90300D6DC010019
:100350006BEE0000357700009A3B0000CD1D0000D9
:10036000E60E000073070000B9030000DC01000086
:10037000EE000000770000003B000000F694E794D8
:10038000D79447950A95D1F7089500270DD08F93FC
:1003900003958F2D8E298D29842BC1F78F91805D38
:1003A0008D930A95D9F74CCF1F930F93002710E236
:1003B000440FDD1CEE1CFF1C001F802F9AE0890BF0
:1003C00010F0082F43951A9599F7802F0F911F91E0
:1003D0000895C89531960020089594E081918D93F9
:1003E0009A95E1F70895B7FE089590E8B91611F4CB
:1003F000D0FE08959FEFD91AE90AF90A09F4039586
:100400000895D190E190F190019108952191319159
:10041000419151910895502F2D2D3E2D4F2D612F3B
:100420000895652F90E8440F551F5927990F479558
:100430006078102F90E8FF0C001F0927990FF794A0
:10044000107800380895FF0C90E89027110F9795C9
:10045000F794092F0895102FBD2CDE2CEF2CF02ED1
:1004600011234AF4B094D094E094F0949FEFB91A19
:10047000D90AE90AF90A0EE1FF2039F4FE2CED2C25
:10048000DB2CBB240850C2F752C032F00A95BB0CDB
:10049000DD1CEE1CFF1CF9CFA6DFD5CF2DEC3CEC0C
:1004A0004CEC5DE366270FC0ACDFB5DFDD24EE2446
:1004B00090E8F92E0FE307C0A9DF05C022273327F4
:1004C00040E251E46627552351F1002381F1A9DF71
:1004D00071F11627005850580894050B18F407FDC1
:1004E00003C025C007FD23C0469537952795F69490
:1004F000E794D79425D0FF202AF0DD0CEE1CFF1CDA
:10050000015073F09D2D969548F0DD203AF4EE20D1
:100510002AF491E0D90E9927E91EF91E94CF07C05D
:100520009FE7092FF92A9FEFD92EE92E0895DD24A0
:10053000EE24FF240027112708950FE79FEFF2CF45
:100540009F929924AA24BB2488E1D216E306F406DC
:1005500028F0D21AE30AF40A089401C08894991C7E
:10056000AA1CBB1CDD0CEE1CFF1C8A9571F7D92C54
:10057000EA2CFB2C9F90089554DFD9F05038C9F035
:1005800016270058952F90580894091F12F418F454
:100590000EC008F00EC00FD0FF202AF0BB0CDD1CEF
:1005A000EE1CFF1C02C0039513F01DDF4CCF0C9412
:1005B00090020C9497029F92FF92EF928D2DFF2450
:1005C000EE24DD24BB2493E0849F1001829FB00CB5
:1005D000D11CE21CF31C839FD00CE11C2224F21CD2
:1005E0009A9531F0BD2CDE2CEF2CFF248F91ECCFAF
:1005F0009F9008950E94E901202D0E94E901302D6D
:100600000E94E901402D0E94E901502D089500004B
:10061000204100007F434F7574707574200020499D
:060620006E7075742000ED
:00000001FF
