:100000000C94460018950000189500001895000003
:10001000189500001895000018950000189500002C
:10002000189500001895000018950000189500001C
:10003000189500001895000018950000189500000C
:1000400018950000189500001895000018950000FC
:1000500018950000189500001895000018950000EC
:1000600018950000189500001895000018950000DC
:1000700018950000189500001895000018950000CC
:100080001895000018950000189500008FEF8DBF9F
:10009000C8EDE0EC4E2E80E18EBFD0E1F0E15F2EA6
:1000A000A89584B7082E877F84BF88E1992781BDF2
:1000B00091BDEEEFFFE0A0E0B1E088278D9331978E
:1000C000E9F789E189B980E08093900088E18AB9F5
:1000D000662480E08ABB8FEF81BB8FEF87BB8FEFF9
:1000E00084BB8FEF809361007091620071607093A8
:1000F00062007091620070687093620081E080938A
:100100000001009100010F3F18F011F00C94A400C1
:10011000C09AC09882E390E00E94EE00E9E3F0E02C
:10012000A8EAB0E10E942C010E94D6000E94DE00E5
:10013000A0E0B1E08C9182BBA0E0B1E08C918F5F38
:100140008C9310F40C948100709162007E7F709308
:100150006200709162007F777093620081E080930B
:10016000000100910001073018F011F00C94C80054
:10017000A0E0B1E08C9185BB84EF91E00E94EE009D
:10018000A0E0B1E08C918F5F8C9310F40C94B100DF
:10019000709162007160709362007091620070688B
:1001A000709362000C947E00F894FFCFA8EAB0E14F
:1001B0008D91882311F005D0FBCF08958DE001D0FB
:1001C0008AE05D9BFECF8CB908953197F1F70895D1
:1001D000689462F80895E89462F80895EF93FF93A5
:1001E000EE27E82BE92B31F0E0EDF7E03197F1F75E
:1001F0000197D1F7FF91EF9108950191119121910C
:10020000308108950F9301E00BBF0F9188940895FA
:100210000F930027F9CF0F9302E0F6CF000F111FC5
:10022000221F331F089500951095209530950F5F7C
:100230001F4F2F4F3F4F0895019110810FC00E9413
:10024000FD000EC00E94FD0010C00191108117FF3B
:1002500005C03FEF2FEF04C000811127222733276D
:1002600037FF03C0E0DF8DE28D93CF92DF92EF92F4
:10027000AA24BB24CC24DD24EE2440E2EAE0FF27BC
:1002800055E093E38081890F87FD9F7083FD907F08
:10029000891B81935A95A9F7C1DFAA1CBB1CCC1CF2
:1002A000DD1CEE1C4A9551F7E894EFE0FF278291A0
:1002B0000CD0EB30E0F71EF068948A2D0AD0882726
:1002C0008D93EF90DF90CF900895982F829501D075
:1002D000892F8F70805D26F0803309F4089568942B
:0402E0008D9308955D
:00000001FF
