:1000000012C0189518951895189518951895189563
:100010001895189518951895189518951895189578
:100020001895189518958FE58DBFC8E3E0E24E2E20
:1000300084E08EBFD4E0F4E05F2EA89584B7082E4C
:10004000877F84BF88E1992781BD91BDEEEFF3E002
:10005000A0E6B0E088278D933197E9F78CE089B965
:1000600080E080BD88E18AB96624A09AA19AA89A06
:10007000A99AA99884EF91E00CD0FACFF894FFCF19
:100080003197F1F70895689462F80895E89462F85A
:100090000895EF93FF93EE27E82BE92B31F0E8EE7C
:1000A000F3E03197F1F70197D1F7FF91EF910895C0
:00000001FF
