:1000000012C0189518951895189518951895189563
:100010001895189518951895189518951895189578
:100020001895189518958FE58DBFC8E3E0E24E2E20
:1000300084E08EBFD4E0F4E05F2EA89584B7082E4C
:10004000877F84BF88E1992781BD91BDEEEFF3E002
:10005000A0E6B0E088278D933197E9F766248FEF0B
:1000600084BB8FEF87BBC29AC39880E08093600007
:10007000009160000F3010F009F00FC0C09A84EFBB
:1000800091E037D0C09884EF91E033D0A0E6B0E0A3
:100090008C918F5F8C9308F4EBCF84EF91E029D0A3
:1000A0007FEF75BBC298C29AC39880E080936000CE
:1000B000009160000F3010F009F00FC0C19A84EF7A
:1000C00091E017D0C19884EF91E013D0A0E6B0E0A2
:1000D0008C918F5F8C9308F4EBCFC5CFF894FFCF52
:1000E0003197F1F70895689462F80895E89462F8FA
:1000F0000895EF93FF93EE27E82BE92B31F0E8EE1C
:10010000F3E03197F1F70197D1F7FF91EF9108955F
:00000001FF
