:100000000C942A001895000018950000189500001F
:10001000189500001895000018950000189500002C
:10002000189500001895000018950000189500001C
:10003000189500001895000018950000189500000C
:1000400018950000189500001895000018950000FC
:10005000189500008FE58DBFC8E3E0E24E2E84E0E6
:100060008EBFD4E0F4E05F2EA89584B7082E877F7A
:1000700084BF88E1992781BD91BDEEEFF3E0A0E652
:10008000B0E088278D933197E9F789E189B980E05D
:1000900080BD88E18AB9662480E08ABBB898B998A7
:1000A000BA98BB98BC9ABD9ABE9ABF9AA09A80E0B3
:1000B00080936500009165000D3018F011F00C94EC
:1000C000F3000091650040E1049F08BAA89AA8983F
:1000D000A89AA898A0E6B0E089B38C9386B3A1E66D
:1000E000B0E08D9388278C93A1E6B0E00D911C9130
:1000F0004FE050E004231523A1E6B0E00D931C93DC
:10010000A1E6B0E00D911C9140E051E00E942F0269
:10011000A1E6B0E00D931C93A0E6B0E00D9111278D
:10012000A1E6B0E04D915C91040F151FA3E6B0E08D
:100130000D931C93E2E0F9E00E942804E3E6F0E06E
:10014000D190E0808FEFE7FE8827F82E082F0E94DD
:1001500002030E949303EDE0F0E0A6E6B0E00E9407
:10016000A102E6E0F9E00E942804E6E6F0E00E9441
:10017000CE020E943A03EDE0F0E0A6E6B0E00E9475
:10018000A102E6E6F0E00E947804EDE0F0E0A6E6E9
:10019000B0E00E94A102EAE0F9E00E942101E5E658
:1001A000F0E0A8E0B4E00E945B020E941901E4E1E3
:1001B000F9E00E942101E6E6F0E0A8E0B4E00E9448
:1001C000CE020E9447010E9419010E94280184EF7B
:1001D00091E00E943801A5E6B0E08C918F5F8C938E
:1001E00010F40C945A000C945700F894FFCF05D0EB
:1001F0000E942F0200FC0CD008950024E89457FFC1
:1002000002C009D0689400F80BD010F801240895BA
:1002100002D009D00895509540954F5F5F4F0895E3
:10022000E89417FF0895009510950F5F1F4F68948D
:100230000895A8E0B4E08D91882311F00CD0FBCF95
:1002400008950E943902802D11F005D0FACF08954B
:100250008DE001D08AE05D9BFECF8CB90895319787
:10026000F1F70895689462F80895E89462F80895A3
:10027000EF93FF93EE27E82BE92B31F0E0EDF7E069
:100280003197F1F70197D1F7FF91EF9108958DE242
:1002900007FD8D938F2D881F802F881F8F57082F64
:1002A0006894F7F8802F87FF15C080958395082FF5
:1002B00080E38D938EE28D93802F815228F080E32E
:1002C0008D9399279C93089544270A95802F09F1CF
:1002D00096D01FC0805230F09EE49D9381E48D93B0
:1002E0009D93EFCF4427DF92EF92FF920F938FE120
:1002F000801B11F0082F83D089D09EE29D930F912F
:10030000FF90EF90DF9044270395003209F4D7CF98
:100310002BD03F93EEE9F3E038E12F2D1E2D0D2D6C
:10032000FF24EE24DD244427000F111F221FA8F410
:100330002F923F920E943902102C0E943902202CE9
:100340000E943902302C0E9439023197410DD21C93
:10035000E31CF01C3F902F9001C0339631963A95E4
:1003600019F73F9107D0AFCFDD0CEE1CFF1C0A95AB
:10037000D9F70895002719E058D08F93802B11F0FA
:10038000039501C08F911A95B9F7802F882309F43E
:1003900096CF8F91805D8D930A95D9F792CF0065A6
:1003A000CD1D80B2E60E40597307A0ACB90350D6FC
:1003B000DC01286BEE0094357700CA9A3B0065CDCE
:1003C0001D00B2E60E0059730700ACB90300D6DC7D
:1003D00001006BEE0000357700009A3B0000CD1D58
:1003E0000000E60E000073070000B9030000DC0106
:1003F0000000EE000000770000003B000000F694D3
:10040000E794D79447950A95D1F7089500270DD022
:100410008F9303958F2D8E298D29842BC1F78F9172
:10042000805D8D930A95D9F74CCF1F930F930027CA
:1004300010E2440FDD1CEE1CFF1C001F802F9AE011
:10044000890B10F0082F43951A9599F7802F0F917B
:100450001F910895019111912191308108950F927A
:10046000B801469F8001479F100D569F100D0F90B9
:100470000895C895319600200895000F111F221F7E
:10048000331F089500951095209530950F5F1F4FED
:100490002F4F3F4F0895019110810FC00E942A02F3
:1004A0000EC00E942A0210C00191108117FF05C0E2
:1004B0003FEF2FEF04C0008111272227332737FF9A
:1004C00003C0E0DF8DE28D93CF92DF92EF92AA24FA
:1004D000BB24CC24DD24EE2440E2EAE0FF2755E0F3
:1004E00093E38081890F87FD9F7083FD907F891B37
:1004F00081935A95A9F7C1DFAA1CBB1CCC1CDD1C3B
:10050000EE1C4A9551F7E894EFE0FF2782910CD05A
:10051000EB30E0F71EF068948A2D0AD088278D937F
:10052000EF90DF90CF900895982F829501D0892F7A
:100530008F70805D26F0803309F4089568948D9360
:10054000089594E081918D939A95E1F70895B7FE0F
:10055000089590E8B91611F4D0FE08959FEFD91AC6
:10056000E90AF90A09F4039508950F928F939F936E
:10057000D216E306F4060FB680E890E880279527A8
:100580000FBE890739F00FB6892B87FD02C081E0C5
:1005900008260FBE9F918F910F900895D190E19002
:1005A000F1900191089521913191419151910895D6
:1005B000502F2D2D3E2D4F2D612F0895D094E09476
:1005C000F09491E0D90E9927E91EF91E109508952F
:1005D000652F90E8440F551F5927990F479560786C
:1005E000102F90E8FF0C001F0927990FF79410783F
:1005F00000380895FF0C90E89027110F9795F79415
:10060000092F0895102FBD2CDE2CEF2CF02E112376
:100610004AF4B094D094E094F0949FEFB91AD90AB8
:10062000E90AF90A0EE1FF2039F4FE2CED2CDB2C4F
:10063000BB240850C2F752C032F00A95BB0CDD1C37
:10064000EE1CFF1CF9CF83DFD5CF2DEC3CEC4CEC3E
:100650005DE366270FC0A2DFABDFDD24EE2490E868
:10066000F92E0FE307C09FDF05C02227332740E2A2
:1006700051E46627552351F1002381F1A9DF71F17F
:100680001627005850580894050B18F407FD03C0AE
:1006900025C007FD23C0469537952795F694E79426
:1006A000D79425D0FF202AF0DD0CEE1CFF1C015052
:1006B00073F09D2D969548F0DD203AF4EE202AF453
:1006C00091E0D90E9927E91EF91E94CF07C09FE744
:1006D000092FF92A9FEFD92EE92E0895DD24EE2463
:1006E000FF240027112708950FE79FEFF2CF9F9275
:1006F0009924AA24BB2488E1D216E306F40628F044
:10070000D21AE30AF40A089401C08894991CAA1C1E
:10071000BB1CDD0CEE1CFF1C8A9571F7D92CEA2C52
:10072000FB2C9F90089554DFD9F05038C9F016275C
:100730000058952F90580894091F12F418F40EC011
:1007400008F00EC00FD0FF202AF0BB0CDD1CEE1C01
:10075000FF1C02C0039513F0FADE4CCF0C94670324
:100760000C946E039F92FF92EF928D2DFF24EE2446
:10077000DD24BB2493E0849F1001829FB00CD11C28
:10078000E21CF31C839FD00CE11C2224F21C9A95DE
:1007900031F0BD2CDE2CEF2CFF248F91ECCF9F90FD
:1007A00008950AF045D026CF5FE322273327442758
:1007B00001C0F9DE0DDF5038B1F3003899F3902F06
:1007C000951B8BF312F434D0FACF983118F022270E
:1007D00033274427983028F0232F342F442798506C
:1007E000F9CF992329F04695379527959A95D9F70A
:1007F000912F962742F014D0B0F6F794E794D7944F
:100800000F5F8BF664CF10D051F008F4D7DEFF20D5
:1008100052F2DD0CEE1CFF1C0150CBF758CF5ECF1F
:10082000D20EE31EF41E0895D21AE30AF40A0895C4
:10083000DF92EF92FF920F931F93D22EE32EF42EAE
:10084000052F162F6F915F914F913F912F91089532
:100850000E943902202D0E943902302D0E94390257
:10086000402D0E943902502D089598DE80E003C08B
:1008700095DE802F8078882321F0DF92EF92FF921F
:100880000F938F930E94E802802F839512F426DF46
:100890001BC080958A95885E0AF415C088501AF4AA
:1008A0000CD0D92210C0DD2488501AF406D0E922D9
:1008B0000AC0EE2402D0F92206C09FEF8770990F7C
:1008C0008A95EAF7089596DE8F918823D9F35F9190
:1008D0004F913F912F910F9348DE0F9199F390F331
:1008E00002D0506867CF5FE340E83327222708959E
:1008F00055DE0F930F7758DFBCDF8F918078082B80
:1009000008950000204100F07F454F7574707574A4
:0E0910003A20000020496E7075743A200000F5
:00000001FF
