:1000000012C0189518951895189518951895189563
:100010001895189518951895189518951895189578
:100020001895189518958FE58DBFC8E3E0E24E2E20
:1000300084E08EBFD4E0F4E05F2EA89584B7082E4C
:10004000877F84BF88E1992781BD91BDEEEFF3E002
:10005000A0E6B0E088278D933197E9F78CE089B965
:1000600080E080BD88E18AB9662485E886B980E4AD
:1000700087B9379A80E0809366000091660003306C
:1000800010F009F04DC007B1007F8091660090E04C
:10009000890F082707B958D1A0E6B0E08D939C934B
:1000A000EEE4F6E0CBD2E0E6F0E0D190E0808FEF36
:1000B000E7FE8827F82E082FF4D184D2EDE0F0E097
:1000C000A2E6B0E0B0D1E2E5F6E0B8D2E2E6F0E0D8
:1000D000BED11FD2EDE0F0E0A2E6B0E0A4D1E6E5AB
:1000E000F6E029D0A8E0B4E0E6E6F0E056D11BD077
:1000F000ECE5F6E020D0A8E0B4E0E2E6F0E0A7D13D
:100100003FD011D0EAE6F6E016D01BD084EF91E0A4
:1001100028D0A6E6B0E08C918F5F8C9308F4ADCF29
:10012000A9CFF894FFCFA8E0B4E08D91882311F017
:100130000BD0FBCF089511D1802D11F005D0FBCF4E
:1001400008958DE001D08AE05D9BFECF8CB90895C3
:100150003197F1F70895689462F80895E89462F889
:100160000895EF93FF93EE27E82BE92B31F0E8EEAB
:10017000F3E03197F1F70197D1F7FF91EF910895EF
:100180008DE207FD8D938F2D881F802F881F8F573D
:10019000082F6894F7F8802F87FF15C08095839506
:1001A000082F80E38D938EE28D93802F815228F06B
:1001B00080E38D9399279C93089544270A95802F77
:1001C00009F192D01FC0805230F09EE49D9381E4EB
:1001D0008D939D93EFCF4427DF92EF92FF920F9381
:1001E0008FE1801B11F0082F7FD085D09EE29D9378
:1001F0000F91FF90EF90DF9044270395003209F4B0
:10020000D7CF27D03F93E8E8F2E038E12F2D1E2D1D
:100210000D2DFF24EE24DD244427000F111F221F83
:1002200088F42F923F9299D0102C97D0202C95D003
:10023000302C93D03197410DD21CE31CF01C3F9021
:100240002F9001C0339631963A9539F73F9107D0F8
:10025000B3CFDD0CEE1CFF1C0A95D9F708950027DB
:1002600019E058D08F93802B11F0039501C08F9126
:100270001A95B9F7802F882309F49ACF8F91805D62
:100280008D930A95D9F796CF0065CD1D80B2E60E05
:1002900040597307A0ACB90350D6DC01286BEE00BF
:1002A00094357700CA9A3B0065CD1D00B2E60E007A
:1002B00059730700ACB90300D6DC01006BEE0000F7
:1002C000357700009A3B0000CD1D0000E60E0000CF
:1002D00073070000B9030000DC010000EE0000001D
:1002E000770000003B000000F694E794D794479510
:1002F0000A95D1F7089500270DD08F9303958F2D80
:100300008E298D29842BC1F78F91805D8D930A955D
:10031000D9F750CF1F930F93002710E2440FDD1C35
:10032000EE1CFF1C001F802F9AE0890B10F0082F95
:1003300043951A9599F7802F0F911F910895019178
:100340001191219130810895369A3699FECF369ACF
:100350003699FECF84B195B10895C89531960020A5
:100360000895000F111F221F331F08950095109547
:10037000209530950F5F1F4F2F4F3F4F08950191EC
:1003800010810DC0DCDF0DC0DADF10C001911081DB
:1003900017FF05C03FEF2FEF04C000811127222770
:1003A000332737FF03C0E2DF8DE28D93CF92DF92D8
:1003B000EF92AA24BB24CC24DD24EE2440E2EAE020
:1003C000FF2755E093E38081890F87FD9F7083FDB0
:1003D000907F891B81935A95A9F7C3DFAA1CBB1C88
:1003E000CC1CDD1CEE1C4A9551F7E894EFE0FF278A
:1003F00082910CD0EB30E0F71EF068948A2D0AD081
:1004000088278D93EF90DF90CF900895982F829555
:1004100001D0892F8F70805D26F0803309F4089514
:1004200068948D93089594E081918D939A95E1F766
:100430000895B7FE089590E8B91611F4D0FE089516
:100440009FEFD91AE90AF90A09F403950895D190A2
:10045000E190F19001910895219131914191519153
:100460000895502F2D2D3E2D4F2D612F0895652F6E
:1004700090E8440F551F5927990F47956078102F22
:1004800090E8FF0C001F0927990FF79410780038A7
:100490000895FF0C90E89027110F9795F794092F76
:1004A0000895102FBD2CDE2CEF2CF02E11234AF4D2
:1004B000B094D094E094F0949FEFB91AD90AE90A65
:1004C000F90A0EE1FF2039F4FE2CED2CDB2CBB24C5
:1004D0000850C2F752C032F00A95BB0CDD1CEE1C6E
:1004E000FF1CF9CFA6DFD5CF2DEC3CEC4CEC5DE347
:1004F00066270FC0ACDFB5DFDD24EE2490E8F92ECF
:100500000FE307C0A9DF05C02227332740E251E4EB
:100510006627552351F1002381F1A9DF71F11627D8
:10052000005850580894050B18F407FD03C025C067
:1005300007FD23C0469537952795F694E794D79401
:1005400025D0FF202AF0DD0CEE1CFF1C015073F0BB
:100550009D2D969548F0DD203AF4EE202AF491E0A6
:10056000D90E9927E91EF91E94CF07C09FE7092FDE
:10057000F92A9FEFD92EE92E0895DD24EE24FF24D9
:100580000027112708950FE79FEFF2CF9F9299243C
:10059000AA24BB2488E1D216E306F40628F0D21A76
:1005A000E30AF40A089401C08894991CAA1CBB1C95
:1005B000DD0CEE1CFF1C8A9571F7D92CEA2CFB2C64
:1005C0009F90089554DFD1F05038C1F0162700589D
:1005D000952F90580894091F12F418F40EC008F0D3
:1005E0000DC00DD0FF202AF0BB0CDD1CEE1CFF1C43
:1005F00002C0039513F01DDF4CCFB8CFBECF9F9242
:10060000FF92EF928D2DFF24EE24DD24BB2493E096
:10061000849F1001829FB00CD11CE21CF31C839FAD
:10062000D00CE11C2224F21C9A9531F0BD2CDE2C5A
:10063000EF2CFF248F91ECCF9F9008958EDE202D1C
:100640008CDE302D8ADE402D88DE502D089500008E
:10065000A04000C07F444461743A20002020202044
:0C06600020202020202020200000560038
:00000001FF
