:1000000012C0189518951895189518951895189563
:100010001895189518951895189518951895189578
:100020001895189518958FE58DBFC8E3E0E24E2E20
:1000300084E08EBFD4E0F4E05F2EA89584B7082E4C
:10004000877F84BF88E1992781BD91BDEEEFF3E002
:10005000A0E6B0E088278D933197E9F78CE089B965
:1000600080E080BD88E18AB9662480E087BB8FEF9D
:1000700084BBA0E6B0E086B38C93A0E6B0E08C91A0
:1000800085BBF7CFF894FFCF3197F1F708956894C7
:0A00900062F80895E89462F80895FC
:00000001FF
